:020000040800F2
:1000000000500020AD510008614F0008694F000802
:10001000714F0008794F0008814F00080000000070
:10002000000000000000000000000000894F0008F0
:10003000954F000800000000A14F0008AD4F0008D8
:10004000F5510008F5510008F5510008F551000878
:10005000F5510008F5510008F5510008F551000868
:10006000F5510008F5510008F5510008B94F000896
:10007000F5510008F5510008CD4F0008E14F000888
:10008000F5510008F5510008F5510008F551000838
:10009000F5510008F5510008F5510008F551000828
:1000A000F5510008F5510008F5510008F551000818
:1000B000F5510008F54F0008F5510008F55100080A
:1000C000F5510008F5510008F5510008F5510008F8
:1000D000F5510008F5510008F5510008F5510008E8
:1000E0000D500008F5510008F5510008000000000F
:1000F0000000000000000000000000000000000000
:0C01000000000000000000005FF808F1A3
:1001100010B5054C237833B9044B13B10448AFF341
:1001200000800123237010BD940200200000000015
:100130003CEE000808B5034B1BB103490348AFF37D
:10014000008008BD00000000980200203CEE00087E
:10015000034613F8012B002AFBD1181A0138704707
:1001600081F0004102E000BF83F0004330B54FEA68
:1001700041044FEA430594EA050F08BF90EA020FD5
:100180001FBF54EA000C55EA020C7FEA645C7FEA68
:10019000655C00F0E2804FEA5454D4EB5555B8BF8B
:1001A0006D420CDD2C4480EA020281EA030382EAFC
:1001B000000083EA010180EA020281EA0303362D8E
:1001C00088BF30BD11F0004F4FEA01314FF4801C61
:1001D0004CEA113102D0404261EB410113F0004F73
:1001E0004FEA03334CEA133302D0524263EB43032A
:1001F00094EA050F00F0A780A4F10104D5F1200EC8
:100200000DDB02FA0EFC22FA05F2801841F1000122
:1002100003FA0EF2801843FA05F359410EE0A5F1F6
:1002200020050EF1200E012A03FA0EFC28BF4CF027
:10023000020C43FA05F3C01851EBE37101F00045DD
:1002400007D54FF0000EDCF1000C7EEB00006EEBEA
:100250000101B1F5801F1BD3B1F5001F0CD3490874
:100260005FEA30004FEA3C0C04F101044FEA4452CB
:1002700012F5800F80F09A80BCF1004F08BF5FEA52
:10028000500C50F1000041EB045141EA050130BD32
:100290005FEA4C0C404141EB0101013C28BFB1F544
:1002A000801FE9D291F0000F04BF01460020B1FA8F
:1002B00081F308BF2033A3F10B03B3F120020CDA62
:1002C0000C3208DD02F1140CC2F10C0201FA0CF040
:1002D00021FA02F10CE002F11402D8BFC2F1200CA5
:1002E00001FA02F120FA0CFCDCBF41EA0C0190405B
:1002F000E41AA2BF01EB0451294330BD6FEA0404A4
:100300001F3C1CDA0C340EDC04F11404C4F120028E
:1003100020FA04F001FA02F340EA030021FA04F3A0
:1003200045EA030130BDC4F10C04C4F1200220FAF7
:1003300002F001FA04F340EA0300294630BD21FA35
:1003400004F0294630BD94F0000F83F4801306BFFB
:1003500081F480110134013D4EE77FEA645C18BFEF
:100360007FEA655C29D094EA050F08BF90EA020F86
:1003700005D054EA000C04BF1946104630BD91EA7E
:10038000030F1EBF0021002030BD5FEA545C05D181
:100390004000494128BF41F0004130BD14F58004C0
:1003A0003CBF01F5801130BD01F0004545F0FE4134
:1003B00041F470014FF0000030BD7FEA645C1ABF69
:1003C000194610467FEA655C1CBF0B46024650EAA0
:1003D000013406BF52EA033591EA030F41F40021CC
:1003E00030BD00BF90F0000F04BF0021704730B552
:1003F0004FF4806404F132044FF000054FF0000127
:1004000050E700BF90F0000F04BF0021704730B5E7
:100410004FF4806404F1320410F0004548BF4042BC
:100420004FF000013EE700BF42004FEAE2014FEA11
:1004300031014FEA02701FBF12F07F4393F07F4FEC
:1004400081F06051704732F07F4208BF704793F0EF
:100450007F4F04BF41F40021704730B54FF4607402
:1004600001F0004521F000411CE700BF50EA010205
:1004700008BF704730B54FF000050AE050EA0102AE
:1004800008BF704730B511F0004502D5404261EB1E
:1004900041014FF4806404F132045FEA915C3FF45F
:1004A000D8AE4FF003025FEADC0C18BF03325FEAFC
:1004B000DC0C18BF033202EBDC02C2F1200300FAAD
:1004C00003FC20FA02F001FA03FE40EA0E0021FAD2
:1004D00002F11444BDE600BF70B54FF0FF0C4CF4C0
:1004E000E06C1CEA11541DBF1CEA135594EA0C0F72
:1004F00095EA0C0F00F0DEF82C4481EA030621EAAD
:100500004C5123EA4C5350EA013518BF52EA0335E7
:1005100041F4801143F4801338D0A0FB02CE4FF099
:100520000005E1FB02E506F00042E0FB03E54FF0C9
:100530000006E1FB03569CF0000F18BF4EF0010EC1
:10054000A4F1FF04B6F5007F64F5407404D25FEABD
:100550004E0E6D4146EB060642EAC62141EA555170
:100560004FEAC52040EA5E504FEACE2EB4F1FD0CB2
:1005700088BFBCF5E06F1ED8BEF1004F08BF5FEA30
:10058000500E50F1000041EB045170BD06F00046E2
:1005900046EA010140EA020081EA0301B4EB5C048F
:1005A000C2BFD4EB0C0541EA045170BD41F4801187
:1005B0004FF0000E013C00F3AB8014F1360FDEBFAC
:1005C000002001F0004170BDC4F10004203C35DA88
:1005D0000C341BDC04F11404C4F1200500FA05F30B
:1005E00020FA04F001FA05F240EA020001F00042AC
:1005F00021F0004110EBD37021FA04F642EB060122
:100600005EEA430E08BF20EAD37070BDC4F10C044B
:10061000C4F1200500FA04F320FA05F001FA04F20F
:1006200040EA020001F0004110EBD37041F10001FB
:100630005EEA430E08BF20EAD37070BDC4F1200506
:1006400000FA05F24EEA020E20FA04F301FA05F26E
:1006500043EA020321FA04F001F0004121FA04F216
:1006600020EA020000EBD3705EEA430E08BF20EAE6
:10067000D37070BD94F0000F0FD101F00046400020
:1006800041EB010111F4801F08BF013CF7D041EAA2
:10069000060195F0000F18BF704703F000465200A6
:1006A00043EB030313F4801F08BF013DF7D043EA77
:1006B0000603704794EA0C0F0CEA135518BF95EA2D
:1006C0000C0F0CD050EA410618BF52EA4306D1D1B4
:1006D00081EA030101F000414FF0000070BD50EAD3
:1006E000410606BF1046194652EA430619D094EA5D
:1006F0000C0F02D150EA013613D195EA0C0F05D147
:1007000052EA03361CBF104619460AD181EA03019A
:1007100001F0004141F0FE4141F470014FF0000052
:1007200070BD41F0FE4141F4780170BD70B54FF0ED
:10073000FF0C4CF4E06C1CEA11541DBF1CEA13556D
:1007400094EA0C0F95EA0C0F00F0A7F8A4EB05044F
:1007500081EA030E52EA03354FEA013100F0888046
:100760004FEA03334FF0805545EA131343EA12630F
:100770004FEA022245EA111545EA10654FEA0026C4
:100780000EF000419D4208BF964244F1FD0404F57D
:10079000407402D25B084FEA3202B61A65EB0305D9
:1007A0005B084FEA32024FF480104FF4002CB6EB96
:1007B000020E75EB030E22BFB61A754640EA0C0016
:1007C0005B084FEA3202B6EB020E75EB030E22BF56
:1007D000B61A754640EA5C005B084FEA3202B6EB97
:1007E000020E75EB030E22BFB61A754640EA9C0056
:1007F0005B084FEA3202B6EB020E75EB030E22BF26
:10080000B61A754640EADC0055EA060E18D04FEAE3
:10081000051545EA16754FEA06164FEAC30343EA83
:1008200052734FEAC2025FEA1C1CC0D111F4801F50
:100830000BD141EA00014FF000004FF0004CB6E749
:1008400011F4801F04BF01430020B4F1FD0C88BFE8
:10085000BCF5E06F3FF6AFAEB5EB030C04BFB6EBF3
:10086000020C5FEA500C50F1000041EB045170BDE6
:100870000EF0004E4EEA113114EB5C04C2BFD4EB13
:100880000C0541EA045170BD41F480114FF0000E97
:10089000013C90E645EA060E8DE60CEA135594EA13
:1008A0000C0F08BF95EA0C0F3FF43BAF94EA0C0F16
:1008B0000AD150EA01347FF434AF95EA0C0F7FF48B
:1008C00025AF104619462CE795EA0C0F06D152EADF
:1008D00003353FF4FDAE1046194622E750EA4106C3
:1008E00018BF52EA43067FF4C5AE50EA41047FF4D4
:1008F0000DAF52EA43057FF4EBAE12E74FF0FF3C39
:1009000006E000BF4FF0010C02E000BF4FF0010C09
:100910004DF804CD4FEA410C7FEA6C5C4FEA430C82
:1009200018BF7FEA6C5C1BD001B050EA410C0CBFD1
:1009300052EA430C91EA030F02BF90EA020F002033
:10094000704710F1000F91EA030F58BF994208BF9A
:1009500090422CBFD8176FEAE37040F00100704757
:100960004FEA410C7FEA6C5C02D150EA013C07D1AE
:100970004FEA430C7FEA6C5CD6D152EA033CD3D0F9
:100980005DF8040B704700BF8446104662468C46F3
:100990001946634600E000BF01B5FFF7B7FF002826
:1009A00048BF10F1000F01BD4DF808EDFFF7F4FF4F
:1009B0000CBF012000205DF808FB00BF4DF808EDDA
:1009C000FFF7EAFF34BF012000205DF808FB00BFFD
:1009D0004DF808EDFFF7E0FF94BF012000205DF81F
:1009E00008FB00BF4DF808EDFFF7CEFF94BF0120D4
:1009F00000205DF808FB00BF4DF808EDFFF7C4FFCD
:100A000034BF012000205DF808FB00BF4FEA410C15
:100A10007FEA6C5C02D150EA013C0AD14FEA430CF8
:100A20007FEA6C5C02D152EA033C02D14FF0000035
:100A300070474FF0010070474FEA410212F5001273
:100A400015D211D56FF47873B3EB625212D94FEA15
:100A5000C12343F0004343EA505311F0004F23FAFF
:100A600002F018BF404270474FF00000704750EA54
:100A7000013005D111F0004008BF6FF00040704711
:100A80004FF00000704700BF4A0011D212F500126B
:100A900011D20DD56FF47873B3EB62520ED44FEAD6
:100AA000C12343F0004343EA505323FA02F0704756
:100AB0004FF00000704750EA013002D14FF0FF3094
:100AC00070474FF0000070474FEA4102B2F1E04337
:100AD00024BFB3F5001CDCF1FE5C0DD901F0004C25
:100AE0004FEAC0024CEA5070B2F1004F40EB830075
:100AF00008BF20F00100704711F0804F21D113F1A1
:100B00003872BCBF01F00040704741F480114FEAD9
:100B10005252C2F11802C2F1200C10FA0CF320FA62
:100B200002F018BF40F001004FEAC1234FEAD3237F
:100B300003FA0CFC40EA0C0023FA02F34FEA4303E9
:100B4000CCE77FEA625307D150EA01331EBF4FF072
:100B5000FE4040F44000704701F0004040F0FE408D
:100B600040F40000704700BF80F0004002E000BF8A
:100B700081F0004142001FBF5FEA410392EA030F88
:100B80007FEA226C7FEA236C6AD04FEA1262D2EBD2
:100B90001363C1BFD218414048404140B8BF5B42D7
:100BA000192B88BF704710F0004F40F4000020F070
:100BB0007F4018BF404211F0004F41F4000121F086
:100BC0007F4118BF494292EA030F3FD0A2F10102D0
:100BD00041FA03FC10EB0C00C3F1200301FA03F10E
:100BE00000F0004302D5494260EB4000B0F5000F31
:100BF00013D3B0F1807F06D340084FEA310102F1F0
:100C00000102FE2A51D2B1F1004F40EBC25008BFA1
:100C100020F0010040EA03007047490040EB00006B
:100C2000013A28BFB0F5000FEDD2B0FA80FCACF16C
:100C3000080CB2EB0C0200FA0CF0AABF00EBC25099
:100C400052421843BCBFD0401843704792F0000F87
:100C500081F4000106BF80F400000132013BB5E7DA
:100C60004FEA41037FEA226C18BF7FEA236C21D050
:100C700092EA030F04D092F0000F08BF08467047B5
:100C800090EA010F1CBF0020704712F07F4F04D183
:100C9000400028BF40F00040704712F100723CBF96
:100CA00000F50000704700F0004343F0FE4040F4C0
:100CB000000070477FEA226216BF08467FEA23637E
:100CC0000146420206BF5FEA412390EA010F40F469
:100CD000800070474FF0000304E000BF10F00043B5
:100CE00048BF40425FEA000C08BF704743F096439C
:100CF00001464FF000001CE050EA010208BF7047B7
:100D00004FF000030AE000BF50EA010208BF70473D
:100D100011F0004302D5404261EB41015FEA010C52
:100D200002BF84460146002043F0B64308BFA3F14A
:100D30008053A3F50003BCFA8CF2083AA3EBC2532C
:100D400010DB01FA02FC634400FA02FCC2F120024B
:100D5000BCF1004F20FA02F243EB020008BF20F082
:100D60000100704702F1200201FA02FCC2F12002E8
:100D700050EA4C0021FA02F243EB020008BF20EADD
:100D8000DC7070474FF0FF0C1CEAD0521EBF1CEA0B
:100D9000D15392EA0C0F93EA0C0F6FD01A4480EAF9
:100DA000010C400218BF5FEA41211ED04FF00063E2
:100DB00043EA501043EA5111A0FB01310CF000400E
:100DC000B1F5000F3EBF490041EAD3715B0040EA34
:100DD000010062F17F02FD2A1DD8B3F1004F40EB04
:100DE000C25008BF20F00100704790F0000F0CF0D7
:100DF000004C08BF49024CEA502040EA51207F3A9B
:100E0000C2BFD2F1FF0340EAC250704740F4000075
:100E10004FF00003013A5DDC12F1190FDCBF00F066
:100E200000407047C2F10002410021FA02F1C2F114
:100E3000200200FA02FC5FEA310040F1000053EAB0
:100E40004C0308BF20EADC70704792F0000F00F0FE
:100E5000004C02BF400010F4000F013AF9D040EA04
:100E60000C0093F0000F01F0004C02BF490011F498
:100E7000000F013BF9D041EA0C018FE70CEAD15396
:100E800092EA0C0F18BF93EA0C0F0AD030F0004C16
:100E900018BF31F0004CD8D180EA010000F00040CA
:100EA000704790F0000F17BF90F0004F084691F088
:100EB000000F91F0004F14D092EA0C0F01D14202C2
:100EC0000FD193EA0C0F03D14B0218BF084608D18B
:100ED00080EA010000F0004040F0FE4040F40000D5
:100EE000704740F0FE4040F4400070474FF0FF0C68
:100EF0001CEAD0521EBF1CEAD15392EA0C0F93EAAF
:100F00000C0F69D0A2EB030280EA010C49024FEA00
:100F1000402037D04FF0805343EA111143EA1013B9
:100F20000CF000408B4238BF5B0042F17D024FF471
:100F3000000C8B4224BF5B1A40EA0C00B3EB510F4C
:100F400024BFA3EB510340EA5C00B3EB910F24BF35
:100F5000A3EB910340EA9C00B3EBD10F24BFA3EBBA
:100F6000D10340EADC001B0118BF5FEA1C1CE0D182
:100F7000FD2A3FF650AF8B4240EBC25008BF20F035
:100F8000010070470CF0004C4CEA50207F32C2BF89
:100F9000D2F1FF0340EAC250704740F400004FF026
:100FA0000003013A37E792F0000F00F0004C02BF57
:100FB000400010F4000F013AF9D040EA0C0093F021
:100FC000000F01F0004C02BF490011F4000F013B7B
:100FD000F9D041EA0C0195E70CEAD15392EA0C0FE3
:100FE00008D142027FF47DAF93EA0C0F7FF470AF1B
:100FF000084676E793EA0C0F04D14B023FF44CAF5E
:1010000008466EE730F0004C18BF31F0004CCAD1F2
:1010100030F000427FF45CAF31F000437FF43CAF2E
:101020005FE700BF4FF0FF3C06E000BF4FF0010C50
:1010300002E000BF4FF0010C4DF804CD4FEA400232
:101040004FEA41037FEA226C18BF7FEA236C11D07C
:1010500001B052EA530C18BF90EA010F58BFB2EB2F
:10106000030088BFC81738BF6FEAE17018BF40F0AF
:10107000010070477FEA226C02D15FEA402C05D163
:101080007FEA236CE4D15FEA412CE1D05DF8040BE8
:10109000704700BF844608466146FFE70FB5FFF77B
:1010A000C9FF002848BF10F1000F0FBD4DF808ED33
:1010B000FFF7F4FF0CBF012000205DF808FB00BF24
:1010C0004DF808EDFFF7EAFF34BF012000205DF87E
:1010D00008FB00BF4DF808EDFFF7E0FF94BF0120CB
:1010E00000205DF808FB00BF4DF808EDFFF7D2FFC8
:1010F00094BF012000205DF808FB00BF4DF808ED0B
:10110000FFF7C8FF34BF012000205DF808FB00BFD7
:1011100042000ED2B2F1FE4F0BD34FF09E03B3EB61
:10112000126209D44FEA002343F0004323FA02F08D
:1011300070474FF00000704712F1610F01D1420279
:1011400002D14FF0FF3070474FF00000704700BFF2
:1011500038B50022002304460D46FFF72FFC28B9BE
:1011600020462946BDE8384000F00AB8204605F17F
:10117000004100F005F8404261EB410138BD00BF7D
:10118000D0B500220B4B06460F46FFF7A5F9FFF737
:101190007BFC0446FFF726F90022074BFFF79CF97A
:1011A00002460B4630463946FEF7DEFFFFF76CFC81
:1011B0002146D0BD0000F03D0000F04180B582B076
:1011C00000AF78607B681D4A934232D11C4B1B787C
:1011D000DBB20A2B0DD11B4B1B889BB21A461A4B54
:1011E0000A219954194B01221A70164B00221A80B9
:1011F0001AE0134B1B78DBB2002B15D0114B1B8868
:101200009BB2122B0DD80F4B1B889BB25A1C91B26C
:101210000C4A11801A460A4B1B78D9B20A4B9954D2
:1012200002E0084B00221A8001220549034808F019
:1012300003FB00BF0837BD4680BD00BF5806002035
:1012400058070020C803002044070020CA030020DC
:1012500080B500AF0B4B1B78DBB2002B0FD0094BD6
:1012600000221A70084A0949094809F0B3FD1422FE
:101270000021074809F01DFE064B00221A8000BF1E
:1012800080BD00BFCA0300201004002058EE0008F3
:1012900044070020C803002080B582B002AF0122BD
:1012A0002B492C4808F0C8FA00F088FD2A4802F0C3
:1012B000DAFF2A4800F0DEFD294800F0B9FF29488E
:1012C00001F0EEFD00F068FD274800F06CFF2748B4
:1012D00001F0C0FD264800F078FF264801F014FE1A
:1012E0002549264802F088F81D4801F00FFD03F05B
:1012F00065F9234803F0B4FB03F045FA4FF47A7024
:1013000003F0DCFF1A4B1A6900920FCB00F07EFF4E
:101310001C4804F0C9FC04220F491A4804F0D0F913
:101320000D4802F0C1FF02F0E5FF174807F046FA4A
:10133000164807F0F9F9164807F0F6F90C21144899
:1013400007F0E6FA134807F0EFF900BFBD4680BD8D
:101350005807002058060020D8020020D0030020A3
:1013600004000020340400202C0400200C03002082
:10137000F8020020800300205003002020030020FA
:10138000E802002070040020C80500203805002075
:10139000100600208005002080B582B000AF034613
:1013A000FB80FB88B3F5006F07D1204B1B7C002B23
:1013B00003D01E4B00221A7435E0FB88B3F5006F92
:1013C00030D11B4B93F83D30002B2BD0194BDB68F1
:1013D00023F02003174AD360174B1B88012B05D835
:1013E000154B1B8801339AB2134B1A80124B1B8882
:1013F000012B08D1114B01221A700D4B012283F8E9
:10140000382000F0F1FC0C4B1B88022B0AD10C4B4E
:1014100001221A70064B002283F83820044B002268
:1014200083F8392000BF0837BD4680BD0C0300207B
:1014300080030020B00200206E040020C4030020BE
:10144000C503002090B599B018AF894B1B885A1C72
:1014500091B2874A1180092B40F28180844B01228E
:101460001A80844B1B885A1C91B2824A1180824A8E
:101470001288934207D37F4B00221A804FF4804199
:101480007E4805F06EF97E4BDB885A1C91B27C4A8F
:10149000D1807B4A1289934205D9794B0022DA80A8
:1014A000774B01229A72774B1B885A1C91B2754A6E
:1014B0001180744A5288934205D9724B00221A80D7
:1014C000704B01221A71704B1B885A1C91B26E4AE4
:1014D00011806D4A5288934205D96B4B00221A80C5
:1014E000694B01221A71694B1B885A1C91B2674AD9
:1014F0001180664A5288934205D9644B00221A80B3
:10150000624B01221A71624B1B885A1C91B2604ACD
:1015100011805F4A5288934205D95D4B00221A80A0
:101520005B4B01221A714FF400615A4805F0EAF84A
:101530000346002B10D1544B9B895A1C91B2524A3E
:101540009181514AD289934209D94F4B01221A7491
:10155000514B01221A7002E04B4B00229A814F4BF3
:101560001B885A1C91B24D4A118042F20F7293426D
:1015700017D94A4B01221A80494BB3F856305A1CEE
:1015800091B2474AA2F85610454AB2F85420934205
:1015900007D9434B0022A3F85620414B0122A3F860
:1015A0005220404802F080FE02F0A4FE00F016FA3D
:1015B0003C4C3B4A01AB11465C22184609F007FD42
:1015C000E368009394E80E00374801F0EFFC364BD7
:1015D0001B78062B02D1344801F0E8FE4FF080431F
:1015E0005B6A9AB2314B1A802F4B93F83830012B3B
:1015F00040F0AE802C4B1B78013B062B00F2C080E4
:1016000001A252F823F000BF251600088117000838
:101610004516000867160008BD160008491700089F
:10162000291700081F4B224A02926C4603F1080258
:1016300092E8030084E803000CCB1E491E4801F029
:101640007BFDA0E001F03EFE164BDA6800920ECB67
:10165000194802F07BF9134BDA6800920ECB16485A
:1016600002F00CF98FE0104801F054FE8BE000BF4F
:10167000CC0300206C040020B800002000100140C2
:10168000340400202C0400200C030020040000205F
:10169000F802002000080140C6030020CE0300200D
:1016A000D0030020D8020020800300202E07002055
:1016B000E802002050030020200300203C4B1B7850
:1016C000012B1FD13B4B1B681A6A3A4B1B6842F037
:1016D00005021A62374B1B685A6C364B1B6842F482
:1016E00000425A64334B1B681A68324B1B6842F045
:1016F00001021A60304B012283F82C202F4B01226B
:1017000083F82C202E4B012203922E4A02926C4623
:1017100003F1080292E8030084E803000CCB264999
:10172000264802F053F92EE0274801F019FE264B17
:1017300093F83B3083F00103DBB2002B22D0224B25
:10174000012283F83B201DE01F4801F02FFE1AE024
:101750001D4B93F83830002B15D1194B194A0292C2
:101760006C4603F1080292E8030084E803000CCB06
:101770001249114801F0E0FC134B01221A7002E0FB
:1017800000BF00E000BF4FF080435B6A9AB20F4B8E
:101790001A800E4B1A880E4B1B88D31A9AB20D4B27
:1017A0001A8002F0B7FD00BF0437BD4690BD00BFF0
:1017B00000000020380500202003002050030020F6
:1017C000D8020020E802002080030020300700201B
:1017D0002E0700203207002080B500AF744B93F82D
:1017E0003930012B0DD1724B93F83C3083F001035B
:1017F000DBB2002B05D003F051F86D4B012283F8CA
:101800003C206B4B93F83C30002B0AD0684B93F88C
:101810003930002B05D102F0B6FF654B002283F86A
:101820003C20644B9B8C49F28702934207D9604B62
:1018300093F83D3083F00103DBB2002B1BD05E4BED
:101840001B681A6A5C4B1B6822F005021A625A4B2D
:101850001B685A6C584B1B6822F400425A64564B62
:101860001B681A68544B1B6822F001021A6002F0D0
:101870008AFF00F0CFFA514B1B79002B08D04F4B59
:1018800000221A714D4800F0F1FC4C4801F03EFA7C
:101890004B4B1B79002B19D000F090FA484B0022DB
:1018A0001A71434B1B78052B10D1454B9B79012BAB
:1018B0000CD1434B5B7983F00103DBB2002B05D0E5
:1018C0003F4B00229A713E4B01225A713D4B1B79CE
:1018D000002B5BD03B4B00221A713B4800F040FBD1
:1018E000394800F063FB384800F06FFB364800F0E1
:1018F00099FB354800F0A4FB334800F0BBFB3248AD
:1019000000F0F5FB304800F003FC2F4BDB8C184651
:10191000FFF7E4F903462D491846FFF733FA03466B
:101920001846FFF7F5FB03469AB2274BA3F8482069
:10193000274B1B891846FFF7D1F90346254918465E
:10194000FFF720FA03461846FFF7E2FB03469AB278
:10195000184B9A841E4B5B891846FEF753FD10A363
:10196000D3E90023FEF7B8FD02460B4610461946A0
:101970000DA3D3E90023FEF7F7FB02460B46104602
:101980001946FFF7A1F80346094A1364124B9B7AE4
:10199000002B03D0104B00229A7200BF00BF80BD05
:1019A000A5383FACD47FD93F851ED6C01BFC9040E4
:1019B00080030020B0020020380500200400002031
:1019C0000C0300202C040020D00300208DEEA03D4D
:1019D000D802002025A94A413404002080B500AF78
:1019E000794B5A68784B1B689A4206D0764B1B6835
:1019F000754A5360744B01221A72734B1A69724B09
:101A0000DB689A4206D0704BDB686F4A13616E4BFD
:101A100001221A756C4B9B8C48F69F42934206D864
:101A2000694B1B6843F00103674A136005E0664B8E
:101A30001B6823F00103644A1360634B9B8C49F6D7
:101A40005802934206D9604B1B6843F002035E4A7A
:101A5000136005E05C4B1B6823F002035A4A1360D5
:101A60005A4BDB8C43F69722934206D8564B1B68A1
:101A700043F48043544A136005E0534B1B6823F43E
:101A80008043514A1360514BDB8C45F25F429342D5
:101A90000CD84E4BDB8C43F69822934206D94A4B26
:101AA0001B6843F48073484A136005E0464B1B688B
:101AB00023F48073444A1360444BDB8C49F6EE02F6
:101AC000934206D9404B1B6843F400733E4A1360AF
:101AD00005E03D4B1B6823F400733B4A13603C4B0D
:101AE0001B6C3B4A126A11461846FFF707FB034678
:101AF000002B06D0344B1B6843F48033324A13600A
:101B000005E0314B1B6823F480332F4A1360304BC0
:101B10001B78062B06D12C4B1B6843F400332A4A52
:101B2000136005E0284B1B6823F40033264A13603A
:101B3000264BB3F84030B3F5966F06D9224B1B689D
:101B400043F48063204A136005E01F4B1B6823F4B5
:101B500080631D4A13601D4B5B8F40F6C312934296
:101B60000BD91A4B5B8840F6C312934205D9174B29
:101B70005B8A40F6C312934206D8134B1B6843F4AA
:101B80000063114A136005E00F4B1B6823F40063E8
:101B90000D4A13600D4B1B8F41F2FE0293420BD88E
:101BA0000A4B5B8841F22A22934205D8074B5B8A95
:101BB00041F22A2293420DD9034B1B6843F4805310
:101BC000014A13600CE000BFB0020020D0030020E7
:101BD00080030020684B1B6823F48053664A13601F
:101BE000664BDB8FB3F52F7F3BD8644B1A8F634B6B
:101BF0005B889A4208D9614B1B8F1A465F4B5B8802
:101C0000D31AB3F52F7F2CD85C4B1A8F5B4B5B8AB2
:101C10009A4208D9594B1B8F1A46584B5B8AD31AE4
:101C2000B3F52F7F1DD8554B5A88544B5B8F9A4282
:101C300008D9524B5B881A46504B5B8FD31AB3F5C9
:101C40002F7F0ED84D4B5A8A4C4B5B8F9A420FD93F
:101C50004A4B5B8A1A46494B5B8FD31AB3F52F7FE9
:101C600006D9454B1B6843F40053434A136005E013
:101C7000414B1B6823F400533F4A13603E4B1A68E4
:101C80003F4B1340002B04D03E4B002283F83D20F5
:101C900003E03C4B012283F83D20384BDB8C43F6BC
:101CA0009822934206D8344BDB6843F00203324A51
:101CB000D36005E0304BDB6823F002032E4AD3608B
:101CC0002E4B5B8F41F20302934222D92B4BB3F987
:101CD0002A30312B1DDC284BDB6803F00803002B76
:101CE00017D0264BB3F85230012B04D0234BB3F856
:101CF0004E301D2B0DD8204BDB6843F004031E4AE9
:101D0000D360214B01229A711C4B0022A3F8522070
:101D100005E0194BDB6823F00403174AD3601B4B23
:101D20001B78DBB2002B08D0184B00221A70124B24
:101D3000DB6843F02003104AD360154B1B78DBB2FD
:101D4000002B08D0124B00221A700B4BDB6843F0BB
:101D50001003094AD3600F4B1B78DBB2002B09D06C
:101D60000C4B00221A70044BDB6843F00803024A54
:101D7000D36000BF00BF80BDB0020020D0030020B0
:101D8000033B0300800300200C030020C603002057
:101D9000C5030020C403002080B400AF064B00221E
:101DA0001A60054B00225A84034B49F270429A8410
:101DB00000BFBD4680BC7047B002002080B500AFB8
:101DC000064A0A21064808F0B1FF64230A220449A2
:101DD000044807F0A6FC00BF80BD00BF60EE00080D
:101DE000380700205806002080B500AF064A0A21B7
:101DF000064808F09BFF64230A220449044807F0C0
:101E000090FC00BF80BD00BF68EE000838070020CE
:101E10005806002080B400AF124B002283F83C200B
:101E2000104B002283F839200E4B002283F8382013
:101E30000D4B00229A710C4B00225A710B4B002261
:101E40001A800B4BDB6823F01003094AD360084B60
:101E5000DB6823F00803064AD36000BFBD4680BCA0
:101E6000704700BF800300200C0300206E04002098
:101E7000B002002080B485B000AF78607B68052296
:101E800083F858207B680022DA877B680022A3F859
:101E900040207B6809221A707B6800225A857B6883
:101EA00046F67812DA847B680022A3F842207B6829
:101EB0000022A3F844207B6809221A707B684FF047
:101EC00000021A637B684FF000025A637B684FF090
:101ED00000029A637B680022A3F850200023FB6075
:101EE00008E07A68FB685B00134400225A80FB68B4
:101EF0000133FB607B681B781A46FB689342F0DB7A
:101F00007B6800225A877B6800221A870023BB6007
:101F10000EE07A68BB685B00134459887A68BB6836
:101F200008335B0013440A469A80BB680133BB60E8
:101F30007B681B781A46BB689342EADB7B68002209
:101F4000A3F852207B680022A3F856207B6842F257
:101F50002832A3F8542000BF1437BD4680BC704718
:101F600090B585B000AF78601423BB600023FB738D
:101F700012E0BB68DBB2FC7B184602F00FFC0346A4
:101F800019467A68630013440A465A80BB680233D4
:101F9000BB60FB7B0133FB737B681B78FA7B9A4247
:101FA000E7D300BF00BF1437BD4690BD80B582B0F7
:101FB00000AF7860362002F0F1FB03461A467B68DA
:101FC0001A8500BF0837BD4680BD80B483B000AF1E
:101FD00078607B685A887B689B8813449AB27B68D8
:101FE000DB8813449AB27B681B8913449AB27B68DE
:101FF0005B8913449AB27B689B8913449AB27B68CD
:10200000DB8913449AB27B681B8A13449AB27B68BB
:102010005B8A13449AB27B68DA8400BF0C37BD46F2
:1020200080BC704780B582B000AF786002F0E2FB00
:1020300003461AB27B685A8500BF0837BD4680BD8B
:1020400080B582B000AF7860702002F0E9FB0246F4
:102050007B68DA62722002F0E3FB02467B681A6357
:10206000742002F0DDFB02467B685A6300BF08372C
:10207000BD4680BD80B485B000AF78607B689B8929
:10208000FB817B689B89BB810123BB601EE07A6872
:10209000BB685B0013445B88FA899A4205D27A6870
:1020A000BB685B0013445B88FB817A68BB685B009C
:1020B00013445B88BA899A4205D97A68BB685B0089
:1020C00013445B88BB81BB680133BB607B681B78B2
:1020D000013BBA689A42DADB7B68FA891A877B6827
:1020E000BA895A8700BF1437BD4680BC704780B498
:1020F00083B000AF78607B681A8F7B685B8FD31AE0
:102100009AB27B689A8700BF0C37BD4680BC704787
:1021100080B485B000AF78607B689B89FB817B6869
:102120009B89BB810023BB6023E07A68BB685B00AE
:1021300013445B88FA899A4205D27A68BB685B00CF
:1021400013445B88FB817A68BB685B0013445B883F
:10215000BA899A420AD97A68BB685B0013445B88E3
:10216000BB81BB689AB27B68A3F85020BB6801337F
:10217000BB607B681B781A46BB689342D5DB7B68E3
:10218000FA89A3F84A207B68BA89A3F84C20FA8917
:10219000BB89D31A9AB27B68A3F84E2000BF1437CC
:1021A000BD4680BC704780B483B000AF78607B6868
:1021B00000221A807B6800221A717B6896225A805E
:1021C00000BF0C37BD4680BC704780B483B000AF01
:1021D00078607B6800221A807B6800221A717B6815
:1021E00000225A717B684FF416725A807B684FF454
:1021F000C8629A607B6800221A617B680022DA60FC
:1022000000BF0C37BD4680BC7047000084B090B45E
:1022100000AF07F1080484E80F00044B1B68BA699B
:102220001A6400BFBD4690BC04B070471006002081
:1022300080B582B000AF786002F09AFB02F0D5FB67
:102240004FF47A7003F03AF87B6800221A807B68BA
:102250004FF4E1725A807B6800221A717B680F226A
:10226000DA8000BF0837BD4680BD00002DE9F04F81
:102270008BB008AF78608D4B5B6803F00303002BD5
:1022800057D08A4B5B6803F48043002B51D07B68A6
:1022900093F8A830012B0FD07B68B3F8AA30002B3D
:1022A0000AD17B68012283F8A8207B680322A3F867
:1022B000AA207B680622DA807B6803F108007C4B49
:1022C0007C4A282108F032FD7B6803F130007A4B0C
:1022D000784A282108F02AFD7B6803F15800774BE3
:1022E000744A282108F022FD704B5B6803F48033A8
:1022F000002B0FD07B68DB8843F008039AB27B6821
:10230000DA807B6803F180006D4B6A4A282108F06F
:102310000DFD07E07B6803F180006A4B654A2821C8
:1023200008F004FD01220921674800F0CFFD00F00C
:10233000D6BC5E4B5B6803F00303002B57D05B4BAE
:102340005B6803F47C53002B51D07B6893F8A83072
:10235000022B0FD07B68B3F8AA30002B0AD17B6820
:10236000022283F8A8207B680322A3F8AA207B68B6
:102370000622DA807B6803F108004D4B4D4A282184
:1023800008F0D4FC7B6803F130004B4B494A28210C
:1023900008F0CCFC7B6803F158004C4B454A2821DF
:1023A00008F0C4FC414B5B6803F48033002B0FD072
:1023B0007B68DB8843F008039AB27B68DA807B682D
:1023C00003F180003E4B3B4A282108F0AFFC07E0B8
:1023D0007B6803F180003B4B364A282108F0A6FCBD
:1023E00001220921384800F071FD00F078BC2F4B24
:1023F0005B6803F00303002B6CD02C4B5B6803F489
:102400007C53002B66D17B6893F8A830032B0FD048
:102410007B68B3F8AA30002B0AD17B68032283F8CB
:10242000A8207B680322A3F8AA207B680222DA8016
:102430007B6803F108001E4B1E4A282108F076FC39
:102440007B6803F130001C4B1A4A282108F06EFC0F
:102450007B6803F158001E4B164A282108F066FCE1
:10246000124B5B6803F48033002B0FD07B68DB8852
:1024700043F008039AB27B68DA807B6803F180003E
:102480000F4B0C4A282108F051FC07E07B6803F150
:1024900080000C4B074A282108F048FC0122092142
:1024A000094800F013FD00F01ABC00BFB002002084
:1024B00070EE000888EE00088CEE0008A4EE00081C
:1024C000BCEE0008CCEE000834040020D0EE00087A
:1024D000E8EE0008804B5B6803F00303002B56D145
:1024E0007D4B5B6803F48043002B50D07B6893F8EE
:1024F000A830042B0FD07B68B3F8AA30002B0AD188
:102500007B68042283F8A8207B680322A3F8AA2012
:102510007B680422DA807B6803F108006F4B704A05
:10252000282108F003FC7B6803F130006D4B6C4AF6
:10253000282108F0FBFB7B6803F158006A4B684ACE
:10254000282108F0F3FB644B5B6803F48033002B15
:102550000FD07B68DB8843F008039AB27B68DA808F
:102560007B6803F18000614B5D4A282108F0DEFBA7
:1025700007E07B6803F180005D4B594A282108F091
:10258000D5FB012209215B4800F0A0FCA7E3524BD8
:102590005B6803F00303002B56D14F4B5B6803F4D9
:1025A0007C53002B50D07B6893F8A830052B0FD0BC
:1025B0007B68B3F8AA30002B0AD17B68052283F828
:1025C000A8207B680322A3F8AA207B680422DA8073
:1025D0007B6803F10800414B414A282108F0A6FB23
:1025E0007B6803F130003F4B3D4A282108F09EFBF9
:1025F0007B6803F15800404B394A282108F096FBCC
:10260000354B5B6803F48033002B0FD07B68DB888D
:1026100043F008039AB27B68DA807B6803F180009C
:10262000324B2F4A282108F081FB07E07B6803F139
:1026300080002F4B2A4A282108F078FB012209212B
:102640002C4800F043FC4AE3234B1B6903F02003B2
:10265000002B59D07B68B3F8AA30002B54D17B688B
:1026600093F8A830062B14D07B68B3F8AA30002B5F
:102670000FD17B68062283F8A8207B680322A3F889
:10268000AA207B680822DA8001220921194800F07B
:102690001DFC7B6803F10800104B114A282108F04B
:1026A00045FB7B6803F13000144BB3F84030144A0B
:1026B000282108F03BFB7B6803F158000C4B084ACB
:1026C000282108F033FB7B6803F180000D4B044A9E
:1026D000282108F02BFB02E3B002002070EE000876
:1026E00088EE000800EF0008A4EE0008BCEE000829
:1026F000CCEE000834040020D0EE0008D003002007
:1027000018EF00082CEF0008A74B1B6903F0040327
:10271000002B00F003817B68B3F8AA30002B40F057
:10272000FD807B6893F8A830062B0AD07B680622D0
:1027300083F8A8207B680322A3F8AA207B680122E3
:10274000DA807B6803F10800984B994A282108F049
:10275000EDFA7B6803F13006964B5B881846FEF76E
:10276000B9FA034694491846FEF70CFB034618468F
:10277000FDF75AFE04460D468E4B9B881846FEF721
:10278000A9FA03468C491846FEF7FCFA0346184698
:10279000FDF74AFE80468946864BDB881846FEF7E1
:1027A00099FA034684491846FEF7ECFA03461846A0
:1027B000FDF73AFE82468B467E4BDB8C1846FEF7D1
:1027C00089FA03467C491846FEF7DCFA03461846A8
:1027D000FDF72AFE02460B46CDE90623CDE904AB00
:1027E000CDE90289CDE90045744A2821304608F038
:1027F0009DFA7B6803F158066E4B1B891846FEF75D
:1028000069FA03466C491846FEF7BCFA03461846B7
:10281000FDF70AFE04460D46664B5B891846FEF737
:1028200059FA034664491846FEF7ACFA03461846BF
:10283000FDF7FAFD804689465E4B9B891846FEF7F8
:1028400049FA03465C491846FEF79CFA03461846C7
:10285000FDF7EAFD02460B46CDE90423CDE90289E6
:10286000CDE90045564A2821304608F05FFA7B68DA
:1028700003F180064F4BDB891846FEF72BFA03461F
:102880004D491846FEF77EFA03461846FDF7CCFD83
:1028900004460D46474B1B8A1846FEF71BFA0346B3
:1028A00045491846FEF76EFA03461846FDF7BCFD8B
:1028B000804689463F4B5B8A1846FEF70BFA034673
:1028C0003D491846FEF75EFA03461846FDF7ACFD93
:1028D00082468B46374BB3F92A301846FEF7FEF98D
:1028E000034635491846FEF74DFA03461846FDF7EC
:1028F0009BFD02460B46CDE90623CDE904ABCDE9AD
:102900000289CDE900452F4A2821304608F00EFA09
:10291000012207212C4800F0D9FAE0E1224B1B6983
:1029200003F00803002B59D17B68B3F8AA30002BC1
:1029300054D17B6893F8A830072B14D07B68B3F888
:10294000AA30002B0FD17B68072283F8A8207B6870
:102950000322A3F8AA207B680822DA800122012141
:10296000194800F0B3FA7B680833184A2821184642
:1029700008F0DCF97B6803F13000154B0C4A282184
:1029800008F0D4F97B6803F15800124B084A28215B
:1029900008F0CCF97B6803F180000F4B044A282132
:1029A00008F0C4F99BE100BFB002002044EF00082A
:1029B00088EE0008D00300206F12833A5CEF000815
:1029C00074EF00088CEF00083404002070EE00085B
:1029D00000EF0008E8EE00082CEF0008844B1B69AC
:1029E00003F01003002B40F015817B68B3F8AA3088
:1029F000002B40F00F817B6893F8A830082B0FD094
:102A00007B68082283F8A8207B680322A3F8AA2009
:102A10007B680122DA8001220121764800F056FA13
:102A20007B6803F10800744B744A282108F07EF992
:102A30007B6803F13006724B5B881846FEF74AF953
:102A4000034670491846FEF79DF903461846FDF700
:102A5000EBFC04460D466A4B9B881846FEF73AF994
:102A6000034668491846FEF78DF903461846FDF7F8
:102A7000DBFC80468946624BDB881846FEF72AF964
:102A8000034660491846FEF77DF903461846FDF7F0
:102A9000CBFC82468B465A4BDB8C1846FEF71AF964
:102AA000034658491846FEF76DF903461846FDF7E8
:102AB000BBFC02460B46CDE90623CDE904ABCDE9CC
:102AC0000289CDE90045504A2821304608F02EF908
:102AD0007B6803F158064A4B1B891846FEF7FAF843
:102AE000034648491846FEF74DF903461846FDF7D8
:102AF0009BFC04460D46424B5B891846FEF7EAF8FC
:102B0000034640491846FEF73DF903461846FDF7CF
:102B10008BFC804689463A4B9B891846FEF7DAF8CB
:102B2000034638491846FEF72DF903461846FDF7C7
:102B30007BFC02460B46CDE90423CDE90289CDE9B1
:102B40000045324A2821304608F0F0F87B6803F14E
:102B500080062B4BDB891846FEF7BCF80346294953
:102B60001846FEF70FF903461846FDF75DFC0446CC
:102B70000D46234B1B8A1846FEF7ACF80346214945
:102B80001846FEF7FFF803461846FDF74DFC804651
:102B900089461B4B5B8A1846FEF79CF80346194989
:102BA0001846FEF7EFF803461846FDF73DFC82464F
:102BB0008B46134BB3F92A301846FEF78FF80346BD
:102BC00010491846FEF7DEF803461846FDF72CFCC0
:102BD00002460B46CDE90623CDE904ABCDE90289D7
:102BE000CDE900450A4A2821304608F09FF876E0F2
:102BF000B002002034040020A4EF000888EE000892
:102C0000D00300206F12833A5CEF000874EF0008D5
:102C10008CEF0008344B1B6903F01003002B5ED0CF
:102C20007B68B3F8AA30002B59D17B6893F8A830A1
:102C3000092B0FD07B68092283F8A8207B68032228
:102C4000A3F8AA207B680122DA800122012127480B
:102C500000F03CF97B6803F10800254B254A282148
:102C600008F064F87B6803F13000234B214A2821E7
:102C700008F05CF87B6803F158041B4B9B8C1846EA
:102C8000FEF728F803461D491846FEF77BF8034671
:102C90001846FDF7C9FB02460B46CDE90023184A4A
:102CA0002821204608F042F87B6803F18004154B88
:102CB000DB8C1846FEF70EF8034610491846FEF75F
:102CC00061F803461846FDF7AFFB02460B46CDE917
:102CD00000230D4A2821204608F028F800BF0C37B1
:102CE000BD46BDE8F08F00BFB002002034040020D4
:102CF000BCEF000888EE0008C8EF00086F12833AA6
:102D0000D8EF0008D0030020E4EF000880B582B0BF
:102D100000AF78607B68B3F8AA30002B07D07B68DF
:102D2000B3F8AA30013B9AB27B68A3F8AA20474BBC
:102D30001B78002B4FD07B68DB8803F00103002B4E
:102D400005D0434A0021002001F05AFE06E07B68CE
:102D500008331A460021002001F052FE7B68DB8810
:102D600003F00203002B05D0394A0021012001F0B5
:102D700047FE06E07B6830331A460021012001F04F
:102D80003FFE7B68DB8803F00403002B05D0304A4C
:102D90000021022001F034FE06E07B6858331A4619
:102DA0000021022001F02CFE7B68DB8803F0080381
:102DB000002B05D0264A0021032001F021FE06E069
:102DC0007B6880331A460021032001F019FE1F4B57
:102DD00000221A7037E07B68DB8803F00103002BC8
:102DE00006D07B6808331A460021002001F008FE57
:102DF0007B68DB8803F00203002B06D07B6830334E
:102E00001A460021012001F0FBFD7B68DB8803F0FE
:102E10000403002B06D07B6858331A460021022099
:102E200001F0EEFD7B68DB8803F00803002B06D081
:102E30007B6880331A460021032001F0E1FD034B3B
:102E400001221A7000BF0837BD4680BD3204002041
:102E5000F0EF000880B483B000AF78607B68002298
:102E60001A807B6800221A717B6800225A717B6885
:102E700000229A717B684FF496725A807B68002218
:102E80001A817B6800229A817B6842F21072DA8193
:102E90007B6800221A7400BF0C37BD4680BC7047A7
:102EA00080B582B000AF78607B680022DA807B68F2
:102EB00000229A727B6864221A81012201217868BB
:102EC00000F004F800BF0837BD4680BD80B483B071
:102ED00000AF78600B467B8013463B807B685B8845
:102EE000002B0AD17B683A885A807B687A881A80DE
:102EF0007B6800229A80012300E0002318460C37EB
:102F0000BD4680BC7047000080B483B000AF7860DD
:102F10007B6801221A707B68A72283F83A207B68BD
:102F200004225A707B68002283F838207B680022D4
:102F300083F839207B68002283F83C207B680022DC
:102F400083F83B207B68002283F83D207B684FF0AC
:102F500000021A647B684FF4EF62DA807B6840F607
:102F6000D9429A807B684FF4FA621A817B680E4AD4
:102F70001A627B684FF439625A817B684FF4386279
:102F80009A817B683F22DA817B6840F2E2621A8292
:102F90007B6840F20F325A827B683F229A8200BFE0
:102FA0000C37BD4680BC70470000B44284B080B589
:102FB00082B000AF786007F1140080E80E007A8CD0
:102FC0007B68DB889A4204D97B68A12283F83A2087
:102FD0001DE03A8C7B689B889A4204D97B68A222C8
:102FE00083F83A2013E07B681A6C7B681B6A1946E9
:102FF0001046FEF783F80346002B04D07B68A3221B
:1030000083F83A2003E07B68A72283F83A207B68A4
:1030100093F83A30A72B03D07B6806221A7056E04B
:10302000B7F86C207B685B8A9A420FD27B681B786A
:10303000032B0BD07B681B78042B07D07B681B7895
:10304000062B03D07B6801221A7040E07B681B7856
:10305000012B0FD1B7F86C207B685B899A4209D2AB
:10306000B7F86C207B685B8A9A4203D37B680222A4
:103070001A702CE07B681B78022B03D17B6803223B
:103080001A7024E07B681B78032B08D13A8CB7F8C0
:103090006C309A4203D37B6804221A7017E07B6875
:1030A0001B78042B08D17B6893F83C30002B03D0AD
:1030B0007B6805221A700AE07B681B78052B06D115
:1030C0007B685B78022B02D17B6807221A703A8CEE
:1030D0007B689B899A4208D37A8C7B68DB899A4209
:1030E00003D27B6802225A701EE03A8C7B685B89AF
:1030F0009A4208D37A8C7B68DB899A4203D97B6831
:1031000001225A7010E03A8C7B685B899A4208D29F
:103110003A8C7B681B8A9A4203D97B6800225A70DA
:1031200002E07B6804225A7000BF0837BD46BDE844
:10313000804004B07047000082B080B586B004AF14
:103140007860396007F1100181E80C000021386ACD
:1031500000F070F8002303933B6A02936A4607F17C
:10316000180393E8030082E8030007F110030CCB77
:103170001E491F4800F02AFC7B68002283F82C209F
:103180003B68002283F82C20FB69009307F11003B1
:103190000ECB786800F072FBFB69009307F1100317
:1031A0000ECB386800F002FB124B1B681A6A114BF9
:1031B0001B6822F005021A620E4B1B685A6C0D4BFD
:1031C0001B6822F400425A640A4B1B681A68094BB8
:1031D0001B6822F001021A60386A01F041FC00BF4E
:1031E0000837BD46BDE8804002B07047200300208C
:1031F000500300203805002080B485B000AF78600F
:103200007B68FB600A4B1B68FA689A4206D9084B38
:103210001B680133064A1360002303E0044B0022BD
:103220001A60012318461437BD4680BC704700BFA2
:103230004004002080B584B000AF78600B46FB707E
:103240004FF4C473FB81FB78002B03D10F4B1E227C
:103250001A8016E04FF49670FFF7CEFF0346002B5E
:103260000FD00A4B1B88FA899A420AD9074B1B8850
:1032700001339AB2054B1A80044B1B881A467B68AF
:103280009A6000BF1037BD4680BD00BFB00000206F
:1032900080B483B000AF78607B68002283F8392067
:1032A00000BF0C37BD4680BC704780B483B000AF10
:1032B00078607B68012283F8392000BF0C37BD4657
:1032C00080BC704780B500AF01211048FFF7B2FF06
:1032D0000E4801F0D9FB0E4B1B681A6A0C4B1B6899
:1032E00042F005021A620A4B1B685A6C084B1B68B5
:1032F00042F400425A64064B1B681A68044B1B6870
:1033000042F001021A6000BF80BD00BFE802002049
:103310003805002080B582B000AF78600F4B1B6885
:103320001A6A0E4B1B6822F005021A620B4B1B68CF
:103330005A6C0A4B1B6822F400425A64074B1B6804
:103340001A68064B1B6822F001021A607868FFF7C2
:10335000ACFF00BF0837BD4680BD00BF3805002068
:1033600080B582B000AF78600F4B1B681A6A0E4BB5
:103370001B6822F005021A620B4B1B685A6C0A4B41
:103380001B6822F400425A64074B1B681A68064BFC
:103390001B6822F001021A607868FFF779FF00BF0E
:1033A0000837BD4680BD00BF3805002080B582B01B
:1033B00000AF78600F4B1B681A6A0E4B1B6822F037
:1033C00005021A620B4B1B685A6C0A4B1B6822F4ED
:1033D00000425A64074B1B681A68064B1B6822F0B0
:1033E00001021A607868FFF753FF00BF0837BD4637
:1033F00080BD00BF3805002080B582B000AF786086
:1034000039607B680F221A807B681B881A4601236B
:1034100093401846FCF7F6FFA7A3D3E90023FDF776
:103420005BF802460B4610461946FDF705FB0246BF
:103430007B685A607B681B881A46012393401846B4
:10344000FCF7E0FF9EA3D3E90023FDF745F8024611
:103450000B4610461946FDF7EFFA02467B689A6064
:103460007B681B881A46012393401846FCF7CAFF65
:1034700095A3D3E90023FDF72FF802460B4610462B
:103480001946FDF7D9FA02467B68DA607B681B882B
:103490001A46012393401846FCF7B4FF4FF0000290
:1034A0009D4BFDF719F802460B4610461946FDF7ED
:1034B000C3FA02467B681A617B681B881A4601239F
:1034C00093401846FCF79EFF81A3D3E90023FDF744
:1034D00003F802460B4610461946FDF7ADFA0246C0
:1034E0007B681A627B6800225A617B681B881A46D7
:1034F000012393401846FCF785FF77A3D3E9002307
:10350000FCF7EAFF02460B4610461946FDF794FA0F
:1035100002467B689A617B681B881A4601239340A8
:103520001846FCF76FFF6EA3D3E90023FCF7D4FF26
:1035300002460B4610461946FDF77EFA02467B68A6
:10354000DA617B6800225A627B68002283F82C20B3
:103550007B6800229A623B680E221A803B681B88B7
:103560001A46012393401846FCF74CFF5EA3D3E9AB
:103570000023FCF7B1FF02460B4610461946FDF743
:103580005BFA02463B685A603B681B881A46012377
:1035900093401846FCF736FF55A3D3E90023FCF708
:1035A0009BFF02460B4610461946FDF745FA0246B8
:1035B0003B689A603B681B881A4601239340184673
:1035C000FCF720FF4CA3D3E90023FCF785FF02465C
:1035D0000B4610461946FDF72FFA02463B68DA60A3
:1035E0003B681B881A46012393401846FCF70AFFE4
:1035F00043A3D3E90023FCF76FFF02460B461046B6
:103600001946FDF719FA02463B681A613B681B88A8
:103610001A46012393401846FCF7F4FE3AA3D3E977
:103620000023FCF759FF02460B4610461946FDF7EA
:1036300003FA02463B681A623B6800225A613B6803
:103640001B881A46012393401846FCF7DBFE4FF017
:103650000002314BFCF740FF02460B46104619466C
:10366000FDF7EAF902463B689A613B681B881A46F7
:10367000012393401846FCF7C5FE25A3D3E9002398
:10368000FCF72AFF02460B4610461946FDF7D4F90F
:1036900002463B68DA613B6800225A623B680022BE
:1036A00083F82C203B6800229A6200BF0837BD4691
:1036B00080BD00BFAFF3008000000000E3363A3F5A
:1036C00000000000D0128341000000A0D1F01C3F98
:1036D000000000E0BBB1593F000000608FC2ED3F29
:1036E000000000A09999A93F000000206A4DA33F67
:1036F0000000008041DC7140000000002F439D3F2E
:103700006666666666E6424000000080BA268A3F2A
:10371000000000A09999B93F0000F83F80B485B03F
:1037200000AFF860B9607A607B681B68FA689A42FB
:1037300006D97B681A68BB681A447B681A6000BFA8
:1037400000BF1437BD4680BC704780B485B000AF61
:10375000F860B9607A60FB685A6AFB689B699A42B4
:103760000ADDFB689A69FB685A62FB689A697B68A4
:10377000D21ABB681A6015E0FB685A6AFB68DB69FD
:103780009A420ADAFB68DA69FB685A62FB68DA690E
:103790007B68D21ABB681A6004E0FB685A6AFB684F
:1037A0005A6200BF1437BD4680BC704784B080B5F4
:1037B00082B000AF786007F1140080E80E007B68EB
:1037C0001B6A3A8C03FB02F27B685A617B6893F8B0
:1037D0002C30002B10D1254B00221A60244B0022E4
:1037E0001A60244B00221A60234B4FF4C0421A6027
:1037F0007B6800225A6233E07B681A697B685B69E8
:10380000D31A1A4A13607B685B68184A126802FB75
:1038100003F37A6812881341164A13607B68DB68E9
:10382000134A126802FB03F37A68128843FA02F221
:10383000114B1B681344104A13600C4B1B680C4A55
:1038400013600C4B1A680C4B1B681A447B685A6255
:10385000084B1B681A4608497868FFF776FF00BFD7
:103860000837BD46BDE8804004B0704748040020DA
:103870004C04002050040020B400002084B080B527
:1038800082B000AF786007F1140080E80E007B681A
:103890001B6A7A8C03FB02F27B685A617B6893F89F
:1038A0002C30002B10D1254B00221A60244B002213
:1038B0001A60244B00221A607B689B6A224A1360BC
:1038C0007B6800225A6233E07B681A697B685B6917
:1038D000D31A1A4A13607B685B68184A126802FBA5
:1038E00003F37A6812881341164A13607B68DB6819
:1038F000134A126802FB03F37A68128843FA02F251
:10390000114B1B681344104A13600E4B1A680E4B80
:103910001B681A447B685A62084B1B68084A13608C
:10392000084B1B681A4608497868FFF70EFF00BF6E
:103930000837BD46BDE8804004B0704754040020FD
:10394000580400205C0400206004002084B0B0B55E
:1039500082B000AF786007F11C0080E80E003B8D5C
:103960001846FDF7B7F9034616491846FDF7BEFAA3
:1039700003461A46144B1A60134B1B681846FCF793
:1039800053FD04460D467B681B881A46012393406D
:103990001846FCF737FD02460B4620462946FCF741
:1039A0009BFD02460B4610461946FDF745F80246B8
:1039B0007B689A6200BF0837BD46BDE8B04004B0DE
:1039C000704700BF006056456404002082B0B0B567
:1039D00086B002AF7860396007F1200181E80C0001
:1039E000FB6A009307F120030ECB7868FFF7DEFE39
:1039F0003B681A887B681B889A420AD97B685A6A96
:103A00003B681B8819467B681B88CB1A02FA03F3B4
:103A100009E07B685A6A7B681B8819463B681B88EB
:103A2000CB1A42FA03F3FB6097F83430002B03D132
:103A30002F4B00221A604FE097F83430012B4BD106
:103A40002B4B1B68FA689A4205D9294A0121F8686C
:103A5000FFF764FE02E0264AFB681360244B1B68F4
:103A60001A463B681A61FB6A009307F120030ECBEC
:103A70003868FFF703FF3B685B6A1846FCF7C2FC37
:103A800004460D463B681B881A460123934018469E
:103A9000FCF7B8FC02460B4620462946FCF746FEDA
:103AA00002460B4610461946FDF70EF80346BB606A
:103AB0003B6B1B681846FDF70DF90346B9681846BD
:103AC000FDF760F903461846FDF722FB02463B6B03
:103AD0009A60386B00F0D8FF054B1B681A46054BFF
:103AE0001A6000BF1037BD46BDE8B04002B0704755
:103AF000680400204404002080B500AFFDF7A2FC5C
:103B0000034B1B680133024A136000BF80BD00BF36
:103B10002807002080B582B000AF0346FB80FB88F9
:103B20001846FDF739FC054B1B8801339AB2034B4D
:103B30001A8000BF0837BD4680BD00BF2C0700209B
:103B400080B500AF01F058FB00F01AF800F012FB4E
:103B500000F0E2FA00F0D6F800F0B4FA00F0A0F9B4
:103B600000F066F800F0FCF800F0E6F900F032FA38
:103B7000FDF792FBFDF730FEFDF76AFB00BFF9E7AA
:103B800080B594B000AF07F1280328220021184621
:103B900007F08FF907F1140300221A605A609A6047
:103BA000DA601A613B1D00221A605A609A60DA607E
:103BB0000223BB620123BB631023FB6302237B64EC
:103BC0000023BB644FF46013FB6407F1280318461D
:103BD00003F0DEFF0346002B01D000F02FFB0F2384
:103BE0007B610223BB610023FB614FF480633B6276
:103BF00000237B6207F114030221184604F04AFAFD
:103C00000346002B01D000F019FB02237B604FF428
:103C10004043FB603B1D184604F0CAFB0346002BE3
:103C200001D000F00BFB00BF5037BD4680BD000047
:103C300080B584B000AF3B1D00221A605A609A60C4
:103C40002E4B2F4A1A602D4B4FF480729A602B4BEB
:103C500000221A73294B00221A75284B4FF4602258
:103C6000DA61264B00225A60244B04221A61234851
:103C700001F048FB0346002B01D000F0DFFA0423DB
:103C80007B600123BB600023FB603B1D19461B4882
:103C900001F010FE0346002B01D000F0CFFA0523FF
:103CA0007B600223BB603B1D1946144801F002FEF5
:103CB0000346002B01D000F0C1FA06237B600323EA
:103CC000BB603B1D19460D4801F0F4FD0346002B77
:103CD00001D000F0B3FA07237B600423BB603B1DD7
:103CE0001946064801F0E6FD0346002B01D000F01E
:103CF000A5FA00BF1037BD4680BD00BF700400208C
:103D00000024014080B500AF124B134A1A60114BDA
:103D1000124A5A600F4B00229A600E4B0022DA6062
:103D20000C4B4FF480421A610A4B00225A61094B36
:103D300000229A61074B0022DA61064B00221A62C8
:103D4000044802F03FFD0346002B01D000F076FA54
:103D500000BF80BDE404002000540040A0860100A4
:103D600080B596B000AF07F1480300221A605A6090
:103D70009A60DA6007F1400300221A605A6007F186
:103D8000240300221A605A609A60DA601A615A614C
:103D90009A613B1D20220021184607F08AF83E4B0D
:103DA0003E4A1A603C4B00225A603B4B00229A600C
:103DB000394B4FF4A072DA60374B00221A61364B50
:103DC00000225A61344B80229A61334804F05CFC33
:103DD0000346002B01D000F031FA4FF48053BB644E
:103DE00007F1480319462C4804F0E6FF0346002B70
:103DF00001D000F023FA284804F032FD0346002BDE
:103E000001D000F01BFA00233B6400237B6407F120
:103E100040031946204805F073FB0346002B01D0F0
:103E200000F00CFA60237B62A023BB620023FB62DC
:103E300000233B6300237B630023BB630023FB63FE
:103E400007F1240300221946134804F0F3FE034649
:103E5000002B01D000F0F2F900237B600023BB604F
:103E60000023FB6013233B6100237B614FF400536D
:103E7000BB6100233B623B1D1946074805F09EFBD2
:103E80000346002B01D000F0D9F9034800F058FF99
:103E900000BF5837BD4680BD38050020002C0140CA
:103EA00080B586B000AF07F1080300221A605A609F
:103EB0009A60DA603B4600221A605A601D4B4FF050
:103EC00080421A601B4B00225A601A4B00229A60F3
:103ED000184B4FF6FF72DA60164B00221A61154B31
:103EE00080229A61134804F0CFFB0346002B01D0D7
:103EF00000F0A4F94FF48053BB6007F108031946A2
:103F00000C4804F059FF0346002B01D000F096F94D
:103F100000233B6000237B603B461946054805F0C3
:103F2000EFFA0346002B01D000F088F900BF1837E4
:103F3000BD4680BD8005002080B586B000AF07F18A
:103F4000080300221A605A609A60DA603B46002239
:103F50001A605A601D4B1E4A1A601C4B00225A60A0
:103F60001A4B00229A60194B41F6FF02DA60174B98
:103F700000221A61154B80229A61144804F084FBD8
:103F80000346002B01D000F059F94FF48053BB6079
:103F900007F1080319460D4804F00EFF0346002BF5
:103FA00001D000F04BF900233B6000237B603B46CF
:103FB0001946064805F0A4FA0346002B01D000F08C
:103FC0003DF900BF1837BD4680BD00BFC8050020C1
:103FD0000004004080B58EB000AF07F12803002236
:103FE0001A605A609A60DA6007F1200300221A60B2
:103FF0005A603B1D00221A605A609A60DA601A61AA
:104000005A619A612D4B2E4A1A602C4B00225A603D
:104010002A4B00229A60294B40F23F62DA60274B1C
:1040200000221A61254B80229A61244804F02CFB5F
:104030000346002B01D000F001F94FF48053BB621E
:1040400007F1280319461D4804F0B6FE0346002B6D
:1040500001D000F0F3F8194804F002FC0346002BED
:1040600001D000F0EBF800233B6200237B6207F1F4
:1040700020031946114805F043FA0346002B01D0EE
:1040800000F0DCF860237B604FF44863BB600223E0
:10409000FB6000237B613B1D0C221946074804F09E
:1040A000C9FD0346002B01D000F0C8F8034800F01A
:1040B00047FE00BF3837BD4680BD00BF1006002058
:1040C0000008004080B500AF114B124A1A60104B37
:1040D0004FF416525A600E4B00229A600C4B00228D
:1040E000DA600B4B00221A61094B0C225A61084B13
:1040F00000229A61064B0022DA61054805F0C1FAF8
:104100000346002B01D000F099F800BF80BD00BF2E
:10411000580600200038014080B582B000AF144B33
:104120005B69134A43F001035361114B5B6903F070
:1041300001037B607B68002200210B2001F039FF26
:104140000B2001F052FF002200210E2001F031FF70
:104150000E2001F04AFF002200210F2001F029FF6C
:104160000F2001F042FF00BF0837BD4680BD00BFF1
:104170000010024080B588B000AF07F110030022A4
:104180001A605A609A60DA60284B9B69274A43F0AC
:1041900010039361254B9B6903F01003FB60FB68E0
:1041A000224B9B69214A43F0040393611F4B9B6997
:1041B00003F00403BB60BB681C4B9B691B4A43F0C4
:1041C00008039361194B9B6903F008037B607B68CC
:1041D00000224FF46041164802F0ABFA4FF46043FE
:1041E0003B6101237B610023BB610223FB6107F17B
:1041F000100319460E4802F001F94FF400633B61C9
:104200000C4B7B610123BB6107F1100319460A487F
:1042100002F0F4F800220021282001F0CAFE282034
:1042200001F0E3FE00BF2037BD4680BD0010024014
:1042300000100140000011100008014080B400AFE0
:1042400072B600BF00BFFDE780B483B000AF7860F6
:104250007B689B6843F4A0027B689A6000BF0C37C0
:10426000BD4680BC704780B483B000AF78607B6887
:1042700000221A807B6800225A807B6800229A8084
:104280007B680022DA807B6800221A817B6800222A
:104290005A817B6800229A817B680022DA8100BF04
:1042A0000C37BD4680BC704780B483B000AF7860E7
:1042B0007B681A887B681A817B685A887B685A8178
:1042C0007B689A887B689A817B68DB8840F61E420F
:1042D000934206D87B68DB88C3F541630F339AB2FB
:1042E00000E000227B68DA8100BF0C37BD4680BC4D
:1042F0007047000080B500AF4FF0FF31044801F077
:10430000D9F80346002B01D000BF00BF00BF80BD1D
:104310007004002080B500AF034B1B681846FFF700
:1043200093FF00BF80BD00BF7004002080B485B043
:1043300000AF78600B46FB700023BB730023FB7358
:1043400009E0FB7B7A6813441A78BB7B1344BB7388
:10435000FB7B0133FB73FA7BFB789A42F1D3BB7B87
:10436000DB43BB73BB7B18461437BD4680BC70472C
:1043700080B586B004AF03463960FB711346BB714C
:10438000FB799AB2BB799BB24FF47A710291019397
:104390003B68009301231021034802F055FC00BF45
:1043A0000837BD4680BD00BFE404002080B586B05C
:1043B00004AF03463960FB711346BB71FB799AB2B7
:1043C000BB799BB24FF47A71029101933B680093E1
:1043D00001231021034802F031FD0023184608375D
:1043E000BD4680BDE404002080B586B000AF034622
:1043F0003960FB8013467B710023BB82464A07F17C
:104400000C0392E80300186004331980FB88DBB2C8
:104410003B73FB881B0A9BB2DBB27B733B68DBB24E
:10442000BB737B79042B48D0042B71DC012B02D0A9
:10443000022B1FD06CE007F10C03032219463E202B
:10444000FFF796FF022000F039FF07F10C0303216C
:104450001846FFF76BFF03463B7505237B7507F195
:104460001403022219466020FFF782FF022000F0A9
:1044700025FF4DE03B681B0ADBB2FB7307F10C0321
:10448000042219463E20FFF773FF022000F016FFBA
:1044900007F10C0304211846FFF748FF03463B755C
:1044A00006237B7507F11403022219466020FFF7EB
:1044B0005FFF022000F002FF2AE03B681B0ADBB22C
:1044C000FB733B681B0CDBB23B743B681B0EDBB21F
:1044D0007B7407F10C03062219463E20FFF748FFC4
:1044E000022000F0EBFE07F10C0306211846FFF74F
:1044F0001DFF03463B7508237B7507F11403022259
:1045000019466020FFF734FF022000F0D7FE00BFFD
:1045100000BF1837BD4680BD08F0000880B584B0E4
:1045200000AF0346FB800023BB81FB88DBB23B73FB
:10453000FB881B0A9BB2DBB27B7307F10C030222E0
:1045400019463E20FFF714FF022000F0B7FE00BF1F
:104550001037BD4680BD000080B584B000AF034673
:10456000FB710B46BB801346BB710023BB81BB882C
:10457000DBB23B73BB881B0A9BB2DBB27B73BB799C
:10458000002B08D1FB7902220B491846FFF70EFFDA
:10459000022000F093FEBB79012B09D107F10C0139
:1045A000FB7902221846FFF7E3FE022000F086FEA8
:1045B00000BF1037BD4680BD3407002080B500AF76
:1045C0001220FFF7ABFF3C2000F078FE9020FFF7B1
:1045D000A5FF02224FF4365149F23420FFF704FFC1
:1045E0000122012149F23720FFF7FEFE01220D21B1
:1045F00049F23620FFF7F8FE0122002149F2FB20A4
:10460000FFF7F2FE0122072149F2FD20FFF7ECFE41
:10461000012200214FF41340FFF7E6FE022240F290
:10462000FF1149F20430FFF7DFFE0122BC2149F2FD
:104630006120FFF7D9FE0122F42149F26220FFF741
:10464000D3FE02224FF6860149F26D20FFF7CCFE21
:104650000122072149F23530FFF7C6FE02226FF032
:104660007E0149F23630FFF7BFFE02227F2149F278
:104670003730FFF7B9FE02227F2149F23830FFF7C9
:10468000B3FE0222012149F23930FFF7ADFE0222CA
:10469000052149F23A30FFF7A7FE022240F6C41185
:1046A00049F23B30FFF7A0FE02220A2149F23D30D9
:1046B000FFF79AFE0222052149F23E30FFF794FEF1
:1046C000022240F6C41149F23F30FFF78DFE02226C
:1046D0000F2149F24130FFF787FE02220A2149F2F9
:1046E0004230FFF781FE02220A2149F21230FFF721
:1046F0007BFE02224FF4FA7149F21030FFF774FE8C
:104700000122312149F27520FFF76EFE01225E2160
:1047100049F27820FFF768FE0122322149F2802019
:10472000FFF762FE01220A2149F28220FFF75CFEB8
:104730000122052149F28620FFF756FE01220321BE
:1047400049F28720FFF750FE0122012149F295200E
:10475000FFF74AFE9220FFF7E1FE0A2000F0AEFDCF
:104760002220FFF7DBFE0A2000F0A8FD00F00BF886
:104770000A2000F0A3FD9A20FFF7D0FEF02000F001
:104780009DFD00BF80BD80B500AF9520FFF7C6FE40
:10479000022000F093FD00BF80BD000080B582B014
:1047A00000AF0346FB71FB79002200211846FFF79A
:1047B000D3FEFB79132B0BD9FB79322B08D80C4B8A
:1047C0005B781B029BB20A4A127813449BB20BE03F
:1047D000074B5B781B02064A127813449BB21A46B9
:1047E000920013445B009BB218460837BD4680BD5B
:1047F0003407002080B500AF002200213A20FFF7E7
:10480000ABFE054B5B781B029BB2034A1278134444
:104810009BB2184680BD00BF340700200000000096
:1048200080B582B000AF0346FB71FB790022002106
:104830001846FFF791FE184B5B781B02164A127858
:1048400013441846FCF74AFA03461846FBF7ECFDFA
:104850000DA3D3E90023FBF73FFE02460B461046AB
:1048600019460BA3D3E90023FBF77EFC02460B4657
:1048700010461946FCF728F9034618460837BD4686
:1048800080BD00BFAFF300809A9999999999B93F7B
:1048900066666666661271403407002080B500AF18
:1048A0009620FFF73BFE022000F008FD00BF80BD10
:1048B00080B586B002AF0346FB71FB7923F00F038E
:1048C000FB73FB791B01BB73FB7B43F00C03DBB277
:1048D0003B72FB7B43F00803DBB27B72BB7B43F094
:1048E0000C03DBB2BB72BB7B43F00803DBB2FB7291
:1048F00007F108026423009304234E21034802F0C9
:10490000A5F800BF1037BD4680BD00BFE4040020FD
:1049100080B586B002AF0346FB71FB7923F00F032D
:10492000FB73FB791B01BB73FB7B43F00D03DBB215
:104930003B72FB7B43F00903DBB27B72BB7B43F032
:104940000D03DBB2BB72BB7B43F00903DBB2FB722E
:1049500007F108026423009304234E21034802F068
:1049600075F800BF1037BD4680BD00BFE4040020CD
:1049700080B500AF322000F0A1FC0320FFF798FFC4
:10498000052000F09BFC0320FFF792FF012000F0C0
:1049900095FC0320FFF78CFF0A2000F08FFC02201B
:1049A000FFF786FF0A2000F089FC2820FFF780FF30
:1049B000012000F083FC0820FFF77AFF012000F0BF
:1049C0007DFC0620FFF774FF012000F077FC0C202F
:1049D000FFF76EFF012000F071FC0120FFF768FF78
:1049E000012000F06BFC00BF80BD80B500AF01204E
:1049F000FFF75EFF022000F061FC00BF80BD0000F9
:104A000080B582B000AF03463A60FB710B46BB71C4
:104A1000FB79124AD25CBB791344DBB21846FFF72C
:104A200047FF09E03B685A1C3A601B781846FFF7BD
:104A30006FFFBB790133BB713B681B78002BF1D151
:104A400002E02020FFF764FFBB795A1CBA71132BD8
:104A5000F7D900BF0837BD4680BD00BFBC000020AD
:104A600080B483B000AF78607B6840F2AB121A600C
:104A70007B681E229A607B681922DA6000BF0C37BF
:104A8000BD4680BC7047000080B483B000AF786042
:104A90000E4B1B687A681268DA620C4B1B687A68E6
:104AA00092685A637B68DB68FF2B0AD8074B1B6848
:104AB0005B6C23F0FF017B68DA68044B1B680A43D8
:104AC0005A6400BF0C37BD4680BC704738050020D3
:104AD00080B485B000AF154B9B69144A43F00103C5
:104AE0009361124B9B6903F00103BB60BB680F4BE2
:104AF000DB690E4A43F08053D3610C4BDB6903F052
:104B000080537B607B680A4B5B68FB60FB6823F02B
:104B1000E063FB60FB6843F00073FB60044AFB68E2
:104B2000536000BF1437BD4680BC70470010024080
:104B30000000014080B588B000AF786007F1100335
:104B400000221A605A609A60DA607B681B68284A03
:104B5000934249D1274B9B69264A43F400739361E2
:104B6000244B9B6903F40073FB60FB68214B9B693A
:104B7000204A43F0040393611E4B9B6903F0040336
:104B8000BB60BB68F0233B6103237B6107F110032B
:104B90001946194801F032FC184B194A1A60174B94
:104BA00000225A60154B00229A60144B8022DA6072
:104BB000124B4FF480721A61104B4FF480625A61AD
:104BC0000E4B20229A610D4B0022DA610B4801F056
:104BD00027FA0346002B01D0FFF730FB7B68074A1A
:104BE0001A62064A7B68536200BF2037BD4680BD0B
:104BF000002401400010024000080140A0040020F1
:104C00000800024080B588B000AF786007F110035B
:104C100000221A605A609A60DA607B681B68154A45
:104C2000934223D1144B9B69134A43F008039361C9
:104C3000114B9B6903F00803FB60FB68C0233B61D9
:104C400012237B610323FB6107F1100319460B4814
:104C500001F0D4FB084BDB69074A43F40013D3612E
:104C6000054BDB6903F40013BB60BB6800BF203752
:104C7000BD4680BD0054004000100240000C0140C1
:104C800080B586B000AF78607B681B68284A934285
:104C90000CD1284B9B69274A43F400639361254B51
:104CA0009B6903F400637B617B693CE07B681B6864
:104CB000B3F1804F0CD11F4BDB691E4A43F0010357
:104CC000D3611C4BDB6903F001033B613B692AE0C4
:104CD0007B681B68184A934214D1164BDB69154A4E
:104CE00043F00203D361134BDB6903F00203FB6063
:104CF000FB68002200211D2001F05BF91D2001F05E
:104D000074F910E07B681B680C4A93420BD1094B85
:104D1000DB69084A43F00403D361064BDB6903F007
:104D20000403BB60BB6800BF1837BD4680BD00BF31
:104D3000002C014000100240000400400008004028
:104D400080B58AB000AF786007F1180300221A60BE
:104D50005A609A60DA607B681B682C4A934232D1B1
:104D60002B4B9B692A4A43F008039361284B9B69AC
:104D700003F008037B617B69254B9B69244A43F060
:104D800004039361224B9B6903F004033B613B697D
:104D90004FF40053BB610223FB6102237B6207F1E6
:104DA000180319461B4801F029FB4FF48073BB61BF
:104DB0000223FB6102237B6207F1180319461648A0
:104DC00001F01CFB1DE07B681B68144A934218D15C
:104DD0000F4B9B690E4A43F0080393610C4B9B6990
:104DE00003F00803FB60FB684FF40073BB61022310
:104DF000FB6102237B6207F118031946054801F0A5
:104E0000FDFA00BF2837BD4680BD00BF002C014021
:104E100000100240000C0140000801400008004062
:104E200080B588B000AF786007F1100300221A60E7
:104E30005A609A60DA607B681B68424A93427DD16F
:104E4000414B9B69404A43F4804393613E4B9B69CD
:104E500003F48043FB60FB683B4B9B693A4A43F099
:104E600004039361384B9B6903F00403BB60BB6888
:104E70004FF400733B6102237B610323FB6107F165
:104E800010031946314801F0B9FA4FF480633B61D1
:104E900000237B610023BB6107F1100319462B48F7
:104EA00001F0ACFA2A4B2B4A1A60294B10225A60A7
:104EB000274B00229A60264B8022DA60244B002286
:104EC0001A61234B00225A61214B20229A61204B08
:104ED0000022DA611E4801F0A3F80346002B01D03E
:104EE000FFF7ACF97B681A4A9A63194A7B685362E8
:104EF000194B1A4A1A60184B00225A60164B0022AE
:104F00009A60154B8022DA60134B00221A61124B13
:104F100000225A61104B20229A610F4B0022DA6165
:104F20000D4801F07DF80346002B01D0FFF786F90C
:104F30007B68094ADA63084A7B68536200BF2037FE
:104F4000BD4680BD0038014000100240000801400D
:104F5000A006002044000240E40600205800024061
:104F600080B400AF00BFFDE780B400AF00BFFDE735
:104F700080B400AF00BFFDE780B400AF00BFFDE725
:104F800080B400AF00BFFDE780B400AF00BFBD46F6
:104F900080BC704780B400AF00BFBD4680BC704786
:104FA00080B400AF00BFBD4680BC704780B500AF85
:104FB00000F068F900BF80BD80B500AF024801F085
:104FC000E9F800BF80BD00BFA004002080B500AF9D
:104FD000024801F0DFF800BF80BD00BFA00600203E
:104FE00080B500AF024801F0D5F800BF80BD00BF1A
:104FF000E406002080B500AF034803F02BFDFEF768
:105000007BFD00BF80BD00BFC805002080B500AF9C
:105010004FF4006001F0BEFB00BF80BD80B400AF64
:1050200001231846BD4680BC704780B582B000AFF2
:105030007860396005F090FF034616221A604FF041
:10504000FF3318460837BD4680BD80B582B000AF3B
:1050500078604FF0FF317868FFF7E7FF00BFFDE7AA
:1050600080B586B000AFF860B9607A6000237B61DC
:105070000AE0AFF300800146BB685A1CBA60CAB2AE
:105080001A707B6901337B617A697B689A42F0DB35
:105090007B6818461837BD4680BD80B586B000AF26
:1050A000F860B9607A6000237B6109E0BB685A1C34
:1050B000BA601B781846AFF300807B6901337B61CF
:1050C0007A697B689A42F1DB7B6818461837BD46DF
:1050D00080BD80B483B000AF78604FF0FF331846D6
:1050E0000C37BD4680BC704780B483B000AF786099
:1050F00039603B684FF400525A60002318460C3761
:10510000BD4680BC704780B483B000AF7860012397
:1051100018460C37BD4680BC704780B485B000AFE0
:10512000F860B9607A60002318461437BD4680BC29
:105130007047000080B586B000AF7860144A154B08
:10514000D31A7B617B693B61134B1B68002B02D137
:10515000114B124A1A60104B1A687B6813443A6963
:105160009A4207D205F0F8FE03460C221A604FF06F
:10517000FF3309E0084B1B68FB60074B1A687B682C
:105180001344054A1360FB6818461837BD4680BDB6
:1051900000500020000400005C070020B008002040
:1051A00080B400AF00BFBD4680BC7047FFF7F8FF7A
:1051B0000B480C490C4A002302E0D458C450043375
:1051C000C4188C42F9D3094A094C002301E013604A
:1051D0000432A242FBD305F0C5FEFEF7B1FC7047D6
:1051E0000000002094020020B4F400089402002083
:1051F000B0080020FEE7000080B500AF084B1B6838
:10520000074A43F010031360032000F0C7FE0F208D
:1052100000F008F8FFF75CFC0023184680BD00BFD3
:105220000020024080B582B000AF7860124B1A684F
:10523000124B1B7819464FF47A73B3FBF1F3B2FBB0
:10524000F3F3184600F0DFFE0346002B01D00123E4
:105250000EE07B680F2B0AD8002279684FF0FF30F0
:1052600000F0A7FE064A7B681360002300E00123DC
:1052700018460837BD4680BDC0000020C800002089
:10528000C400002080B400AF054B1B781A46054BC4
:105290001B681344034A136000BFBD4680BC7047BF
:1052A000C80000206007002080B400AF024B1B68DC
:1052B0001846BD4680BC70476007002080B584B0AA
:1052C00000AF7860FFF7F0FFB8607B68FB60FB68B9
:1052D000B3F1FF3F05D00A4B1B781A46FB68134415
:1052E000FB6000BFFFF7E0FF0246BB68D31AFA6815
:1052F0009A42F7D800BF00BF1037BD4680BD00BF3F
:10530000C800002080B586B000AF78600023FB7530
:1053100000233B610023BB600023FB607B68002B04
:1053200001D10123BEE07B689B68002B7B689B6AF0
:10533000002B09D17B680022DA627B68002283F8A7
:1053400024207868FFF7F6FB786800F005FC034638
:10535000FB757B689B6A03F01003002B40F099807B
:10536000FB7D002B40F095807B689B6A23F488537B
:1053700023F0020343F002027B689A627B685A685A
:105380007B68DB691A437B681B7B5B001343BA684D
:105390001343BB607B689B68B3F5807F03D07B6859
:1053A0009B68012B02D14FF4807300E000233A691F
:1053B00013433B617B681B7D012B19D17B681B7BF1
:1053C000002B09D17B689B69013B5A033B6913435E
:1053D00043F400633B610BE07B689B6A43F020026F
:1053E0007B689A627B68DB6A43F001027B68DA6261
:1053F0007B681B685B6823F469417B681B683A69BA
:105400000A435A607B681B689A68284B13407A6885
:105410001268B9680B4393607B689B68B3F5807F23
:1054200003D07B689B68012B04D17B681B69013B1F
:105430001B05FB607B681B68DB6A23F470017B68DB
:105440001B68FA680A43DA627B681B689A68184B23
:105450001340BA689A420BD17B680022DA627B68FB
:105460009B6A23F0030343F001027B689A6218E011
:105470007B689B6A23F0120343F010027B689A62F8
:105480007B68DB6A43F001027B68DA620123FB750B
:1054900007E07B689B6A43F010027B689A620123F5
:1054A000FB75FB7D18461837BD4680BDFDF7E1FF53
:1054B000FE0E1FFF90B587B000AF78603960002303
:1054C0007B610023FB6000233B61FFF7EDFE786109
:1054D0007B681B689B6803F48073002B0BD07B6890
:1054E0009B6A43F020027B689A627B68002283F803
:1054F00024200123D3E07B681B685B6803F480737E
:10550000002B31D17B681B68DB6A03F47003002B2E
:105510002AD121E03B68B3F1FF3F1DD03B68002B4F
:1055200007D0FFF7C1FE02467B69D31A3A689A4258
:1055300012D27B681B681B6803F00203002B0BD19F
:105540007B689B6A43F004027B689A627B68002256
:1055500083F824200323A2E07B681B681B6803F008
:105560000203002BD6D070E04F4B1C68022002F0E3
:10557000D5FF0346B4FBF3F27B681B6819694B4BFC
:105580000B40002B18D17B681B68D968484B0B4037
:10559000002B11D17B681B681969464B0B40002B0F
:1055A00008D17B681B68D968434B0B40002B01D1A5
:1055B000142320E029231EE07B681B6819693D4BFA
:1055C0000B40002B06D17B681B68D9683A4B0B4017
:1055D000002B0DD07B681B681969384B0B40002BE2
:1055E00008D17B681B68D968344B0B40002B01D174
:1055F000542300E0FC2302FB03F33B6121E03B6802
:10560000B3F1FF3F1AD03B68002B07D0FFF74CFEE9
:1056100002467B69D31A3A689A420FD2FB683A690C
:105620009A420BD97B689B6A43F004027B689A62BA
:105630007B68002283F82420032330E0FB680133D9
:10564000FB60FB683A699A42D9D87B681B686FF0A7
:1056500012021A607B689B6A43F400727B689A624C
:105660007B681B689B6803F46023B3F5602F15D13A
:105670007B681B7B002B11D17B689B6A23F48072B3
:105680007B689A627B689B6A03F48053002B05D188
:105690007B689B6A43F001027B689A62002318468C
:1056A0001C37BD4690BD00BFC00000202449922495
:1056B00024499200922449129224490049922400DC
:1056C00080B586B000AFF860B9607A600023FB75E2
:1056D000FB681B68644A934204D0FB681B68634AFA
:1056E000934206D1604B5B6803F47023002B40F0BB
:1056F000B380FB6893F82430012B01D10223AEE084
:10570000FB68012283F82420F86800F0CBF90346F7
:10571000FB75FB7D002B40F09A80FB689B6A23F4AD
:10572000706323F0010343F48072FB689A62FB68A4
:105730001B684E4A934205D14B4B5B6803F47023C0
:10574000002B15D1FB689B6A23F48012FB689A62D8
:10575000FB681B685B6803F48063002B26D0FB6842
:105760009B6A23F4405343F48052FB689A621DE025
:10577000FB689B6A43F48012FB689A62FB681B68B3
:10578000394A934204D0FB681B68384A93420DD1D2
:10579000354B5B6803F48063002B07D0FB689B6A82
:1057A00023F4405343F48052FB689A62FB689B6A7F
:1057B00003F48053002B06D0FB68DB6A23F006025B
:1057C000FB68DA6202E0FB680022DA62FB68002212
:1057D00083F82420FB681B6A254A9A62FB681B6ACF
:1057E000244ADA62FB681B6A234A1A63FB681B6857
:1057F0006FF002021A60FB681B689A68FB681B68FE
:1058000042F480729A60FB68186AFB681B684C332C
:105810001946BA687B6800F05DFCFB681B689B68F2
:1058200003F46023B3F5602F08D1FB681B689A6806
:10583000FB681B6842F4A0029A600FE0FB681B68DB
:105840009A68FB681B6842F480129A6006E0FB6865
:10585000002283F8242001E00123FB75FB7D18461C
:105860001837BD4680BD00BF00240140002801401C
:10587000DB5B0008575C0008735C000880B483B0F1
:1058800000AF786000BF0C37BD4680BC704780B465
:1058900083B000AF786000BF0C37BD4680BC704756
:1058A00080B483B000AF786000BF0C37BD4680BCC9
:1058B0007047000080B485B000AF78603960002385
:1058C000FB730023BB607B6893F82430012B01D16C
:1058D0000223DCE07B68012283F824203B685B68BC
:1058E000062B1CD87B681B68596B3B685A681346AB
:1058F0009B001344053B1F2202FA03F3DB431940CC
:105900003B6818683B685A6813469B001344053B84
:1059100000FA03F27B681B680A435A633CE03B6869
:105920005B680C2B1CD87B681B68196B3B685A683A
:1059300013469B001344233B1F2202FA03F3DB436D
:1059400019403B6818683B685A6813469B0013442B
:10595000233B00FA03F27B681B680A431A631BE0CF
:105960007B681B68D96A3B685A6813469B001344DE
:10597000413B1F2202FA03F3DB4319403B681868DE
:105980003B685A6813469B001344413B00FA03F2FC
:105990007B681B680A43DA623B681B68092B1CD9C9
:1059A0007B681B68D9683B681A6813465B00134420
:1059B0001E3B072202FA03F3DB4319403B68986859
:1059C0003B681A6813465B0013441E3B00FA03F25F
:1059D0007B681B680A43DA6019E07B681B681969F9
:1059E0003B681A6813465B001344072202FA03F36C
:1059F000DB4319403B6898683B681A6813465B00B4
:105A0000134400FA03F27B681B680A431A613B687F
:105A10001B68102B03D03B681B68112B32D17B68AD
:105A20001B681D4A934225D17B681B689B6803F461
:105A30000003002B26D17B681B689A687B681B6873
:105A400042F400029A603B681B68102B1AD1134B7A
:105A50001B68134AA2FB03239A0C13469B001344B2
:105A60005B00BB6002E0BB68013BBB60BB68002B16
:105A7000F9D107E07B689B6A43F020027B689A6259
:105A80000123FB737B68002283F82420FB7B1846EC
:105A90001437BD4680BC704700240140C000002080
:105AA00083DE1B4380B584B000AF78600023FB60C9
:105AB0000023BB607B681B689B6803F00103012B1C
:105AC00040D07B681B689A687B681B6842F00102C3
:105AD0009A601F4B1B681F4AA2FB03239B0CBB60F1
